RU08230WDT1ET5AC80005176  2008200802270870CAMPER 560 SK       ACC                 7030000000000000000780250185R14C                       5JX14           100               J       00000000000000000016000148001600000000                                            020140321GRÅ                 01000000000000000001000000000000000000000000000002013052102270000 000
Z039520ZI56               1956196010200000-                   2-HJULS             7020000000000000000420175               650X16                                                   00000000000000000025000050000000000000                                            000000000                    01000000000000000000000000000000000000000000000001960102000000000 000
JK0521020071310094        2008200805222990TOKVAM ENAKSLET HENG----                7020000000000000000565245400/60 - 15,5                                 140               A6      00000000000000000050000170005000000000                                            000000000RØD                 01000000000000000016000000000000000000000000000002008052205220000 000
S06222011101210069523     1962201705123900220                 220 S               10100081000021950104881807,25-13        7,25-13        5JK-13  5JK13   81       84       S       00000000147014850018450146000920000990                                            120171208SVART               02101200007500000000750000003045100000000000000002017051206070000U051
DC02250F704732            1970197006040732MUSKETEER DD        -                   7030000000000000000543200               5.90 X 13                               4                00000000000000000007940061000000000871                                            019941228GRØNN (FLERFARGET)  01000000000000000000000000000000000000000000000001991021500000000 000
RF91500WDB6703661P159091  1991199107253900814D                42                  32100100000039720207002208.5  X  17.5  L8.5  X  17.5  L                116      120              00000000000000000074900304002500005600                                            020160608HVIT                02100000000000000000000000000000120150501201603312009051300000000 030
UR76890YV1MW765262166805  2005200702095800V50                 M                   1010008000001560020451177195/65R15      195/65R15      6,0JX15 6,0JX15 85       85       T       00460046154815440019000133301020001000MW76                MW7652??                100000000SVART               02101300006500000000750000003200120171113201910312015121809090132 052
W008510852                1969196904005800-                   -                   2010013603000000021280235                                                                        00000000000000000117050803000000005940                                            019840823                    02100000000000000000000000000000100000000201710311969040000000000 490
KV043203367216            2000200001178250INDY LITE           0983433             6300002500000339010270108                                                                        00000000000000000003680020600000000000                                            020101104                    00000000000000000000000000000000100000000000000002003011001170000 020
E048300137592             1963196307268403CORVETTE            300                 6010000000000047010000000                                                                        00000000000000000001350005000000000000                                            000000000                    02100000000000000000000000000000000000000000000002014121900000000 010
LY58660JTEBZ29J400064222  2005200501145480LAND CRUISER        KDJ120L-GKAEYW      1010012200002982020481179225/70 R 17    225/70 R 17    6J      6J      104      104      R       00300030157515750028500212001290001800                                            000000000SVART               02202800007500000001300080005650120171019201910312015081801140000 050
T0013406191977            19641964032357501200                113                 10100000000011920104071545.60 - 15      5.60 - 15      4       4                                 00000000000000000011800074000000000000                                            020040924BLÅ                 02100650003700000000000000000000020021004201610312003101500000000 050
DA05150WCJ115563YLGG2009  2001200110180851DE LUXE 561DM       561DM               7030000000000000000758248205/70R15                     RADIAL                                    00000000000000000016000128000000000000                                            000000000HVIT                01000000000000000000000000000000000000000000000002012061810180000 000
BR43260JTEBZ29J300150167  2007200710245480LANDCRUICER         J12                 3150012700002982020472188265/65R17      265/65R17      7,5     7,5     93       104      S       00000000000000000028500200001290001800                                            100000000SVART               02202800007500000000000000000000120180115201910312007102409190000 020
US01120237                1979197911270600-                   53                  7020000000000000000440190               14.00 X 16             11"              8                00000000000000000039900101500000003500                                            000000000GRÅ                 01000000000000000015000000000000000000000000000002016112800000000 000
BP058604XASB8AS21C137630  2001200104028250800 XCR             -                   6300011400000794010274120                                                                        00000000000000000005110029400000000000                                            000000000SVART               00000000000000000000000000000000100000000000000002015010504020000 010
SU0146039857              1988198801121140-                   230 T/87            7090000000000000000261134               5.00 - 10              3.50             4                00000000000000000007000013000000000700                                            000000000                    01000000000000000000750000000000000000000000000002003032600000000 000
RH05250174602             1966196603148401CORVETTE 300        -                   60100000000000470100000652.25X23        2.25X23                                                  00000000000000000001400006000000000000                                            019930622                    02100000000000000000000000000000000000000000000001976052600000000 010
AX03590BM256              1972197210040000-                   B.M.V.              7090000000000000000290155               5.00 X 8                                4                00000000000000000006000012000000000000                                            000000000                    01000000000000000000000000000000000000000000000001975092500000000 000
LD03510SCKD00000G5125977  2016201606062620HB                  2SB                 7090000000000000000464226165R13C        165R13C        5.00JX135.00JX1396       96       J       00000025205920590027000103202700000000HB27                00                      000000000SVART               02000000000000000001500000000000000000000000000002017011606060000 000
CV276301FMZU34E5WUA45029  1998199803052600EXPLORER            1FMDU34E            1010015200004011010479178P255/70 R 16   P255/70 R 16   7 1/2J  7 1/2J  95       95       S       00110011150014800025220201001270001361                                            000000000BLÅ                 02202380007500000000750045004902120170207201810312017021000000000 050
U0470202010               1970197006190960VT 6 MAJOR 70       -                   7090000000000000000340139               5.00 X 8                                4                00000000000000000006000016500000000000                                            000000000                    01000000000000000000000000000000000000000000000001970061900000000 000
UR70910WDB2021931F992172  2000200409163900C 220 CDI ST.V      -                   1010009200002148020452172195/65R 15     195/65R 15                     87       87       U       00370037000000000019700141500930001070                                            100000000GRÅ                 02101500007300000000000000000000120160921201810312012061510130000 050
VE557701G6CD5155K4323158  1989198912181550DE VILLE            -                   1010000000004500010522186P205/70 R 15   P205/70 R 15   15X6    15X6                              00000000000000000021160157501157000959                                            000000000HVIT                02100454004540000000000000000000020160426201710312016052300000000 050
AT0287015B13              1994199409010760B13                 -                   7090000000000000000638212               185 R 14               5.5J                              00000016000000000013750034500000001300                                            000000000                    01000000000000000000750000000000000000000000000002012061400000000 000
CR02530YG902270080962902  20082008102900005600U               5600U               7090000000000000000715250185/14C        185/14C        5.5JX14 5.5JX14 95       95       J       00000000000000000027000102000150001350                                            000000000HVIT (FLERFARGET)   02000000000000000001500000000000000000000000000002016061610290000 000
H026590436                195919590310059067                  -                   7090000000000000000440187               9.50 X 10                                                00000000000000000036000060000000000000                                            019930526                    01000000000000000000000000000000000000000000000001959031000000000 000
AN057701U6133998          1981200305208550500                 XT                  62000023530004990102040733,25-21        4,00-18                                                  00000000000000000003150015000100000225                                            100000000SØLV                02100000000000000000000000000000100000000000000002017091805020000 020
CK03220EX88067            1988198808041860EX SW 1250          -                   7090000000000000000565220               185 SR 14                               90S              00000000000000000012500052000000001250                                            000000000                    01000000000000000000000000000000000000000000000001995021300000000 000
BD39330SRX9490            1971200406044900SILVER SHADOW       FDS                 1010016200006750010517180215/75R15      215/75R15                                                00000000000000000026530217800000000000                                            100000000SVART (FLERFARGET)  02100000000000000000000000000000120150817202110312004062501010000 050
AS48110WBA5L51020G220818  2015201604131400520D XDRIVE         5K                  1010012000001995020491186225/55R17      225/55R17      8JX17   8JX17   90       96       V       003000301606163200248001840011700014205L51                6A25R000                100000000HVIT                022020000075000000009000000045701000000002019103120160420080501326052
ZE9081010039              1971197111255800F85-42              -                   320001213200510002068524010.00 X 20"    10.00 X 20"                    14       14               00000000000000000120000619004100309000                                            019851011                    02100000000000000000000000000000100000000201710311985013000000000U030
KF61580WDB2020181F344204  1995199607103900C 180               -                   1010009000001799010449172195/65 R 15 E  195/65 R 15 E  6,5"    6,5"    79       90       H       00000000000000000018300135000870000990                                            100000000SØLV                02101575006750000000000000000000120170731201910312012090300000000 050
HB04570586925             1972197202089120167 - 770           -                   40100040000023950202861636.00 X 16      11 X 28                        6        4                00000000000000000031400160001240001900                                            000000000                    02100000000000000000000000000000000000000000000002001082700000000 010
NE06890MELBYE3            1975197507250000-                   -                   70900000000000000002751374.00X8                                        6                         00000000000000000004500014000000000000                                            000000000                    01000000000000000000000000000000000000000000000001975072500000000 000
ST73010JMBHZPB5VYA002221  2002200212304011L 400 TURBO D       PB5VHLZDTL6         3010006400002477020500170185 R 14 C     185 R 14 C     5 J     5 J     102      102      N       00400040144514200027000169501200001700                                            000000000HVIT                02101200006000000000750150003900120170212201810312005071812300000 060
KA071401HFSC47413A200776  2002201703317740GL1800 GOLD WING    SC47                6200008700001832010264095130/70R18      180/60R16      3,50X18 5,00X16 58       74       U       00000000000000000006070040500232000375                                            100000000BLÅ                 02100000000000000000000000000000100000000000000002017033108310000 020
RK81120YV2RT60DXEA769164  2014201410155800FH 540              FH64T               3400040500012777020707255385/55R22,5    295/60R22,5    11.75   9.00    156      142      G       00000000210918370290001030008000021000                                            000000000GRØNN               032000000000004492000000000600001201709262018103120170601101500006021
CE05400E100665C           1968196805280400EUROPE I            -                   7030000000000000000409198               5.20 X 13                                                00000000000000000006200048000000000000                                            019940315GUL                 01000000000000000000000000000000000000000000000001985040100000000 000
DA1891011101410033935     1962196404023900220 SE              -                   10100000000021500104881807.25X13        7.25X13                                                  00000000000000000018650134000000000000                                            019841231                    02101340006700000000000000000000000000000201610311971061700000000 050
VF345504T272SV1007003730  1992200003105480CAMRY 2.2 ST        V 10W               1010010000002164010480177195/70 R14     195/70 R14                     87       87               00000000000000000019250144001030001075                                            100000000SØLV                02101500005000000000000000000000020160810201810312001071312160000 050
DL020402J4222123          1980199804298550SR 500              -                   6200002000000495010211084350- 19        400- 18                        68       68       N       00000000000000000003200016300000000000                                            120090831SVART               02100000000000000000000000000000000000000000000002008082200000000 020
KB061608BV016074          1995199511168550V MAX 600 XT        8BV                 6300006600000598010281116                                                                        00000000000000000004310026100000000000                                            020050315                    00000000000000000000000000000000100000000000000001996010400000000 010
LL06250YXAA2030F1F307004  2001200111161190-                   A2030F              7090000000000000000448192155 R 13       155 R 13       4.5J    4.5J    84       84               00000000169016900013000050000998000998                                            000000000HVIT                02000000000000000001200000000000000000000000000002015062411160000 000
ZJ0292047G0330            1986198607180460AZUR 600 TK         -                   7030000000000000000759230145 SR 13                                                               00000000000000000015000115000000001500                                            020031231                    01000000000000000000000000000000000000000000000001986071800000000 000
JE04150JE4150             1980198006100000FOR GODS            -                   7090000000000000000360150               5.00X8                                  4                00000000000000000005000014000000000500                                            000000000                    01000000000000000000000000000000000000000000000002007101200000000 000
SD35860WDB9066331S170454  2007200704133900315 CDI SPRINTER    WDB906633           1010011000002148020591199235/65R16C     235/65R16C     6.5J    6.5J    113      113      R       00620062171017160035000241001650002250                                            000000000SØLV                02102000007500000001000300005500120171012201910312015021304130225 062
ZW08060YG9021500D1975725  2013201303131142EUROWAGON           4600 1.9            7090000000000000000615234185R14C                       5,5J            98                J       00300000214000000015000065001500000000                                            000000000HVIT                01000000000000000001000000000000000000000000000002014031003130000 000
E006600183627             1966196604148403CORVETTE            -                   6010000000000047010000000                                                                        00000000000000000001500006000000000000                                            000000000                    02100000000000000000000000000000000000000000000002001072500000000 010
 1864009754               196420020610580018335VD             18335VD             1010007600001780010440170165R15         165R15         41/2J   41/2J   76       76       R       00000000000000000014500117000700000800                                            120121228RØD                 02101240007500000000000000000000120061031200810312002061002270000 020