HT19080KNACC81CGH5022319  20176088004201620170106000000000RØD                 0000000020211031201701060106
BN79700YV1965956S1026457  19950046004199419950511020151228SVART               2014041520151031201508140000
FT34020VF30U9HZHAS243730  20105400015201020101125000000000HVIT                2016091920181031201101191125
RJ57410VNKKG96300A013567  20065670006200520060512020171222SØLV                2016100620181031200907200512
ZW028904XAMH50S48A532079  20080035002200520081111000000000GRØNN               0000000000000000200811111111
KF77590JHMEJ9340WS035586  19985012002199519980514000000000BLÅ                 2016061720181031201606290000
BP75580WVWZZZ3BZ3P255899  20025553214200220021024000000000GRØNN               2017011320181031201601081024
DJ07990289726             19910049002198919910619000000000                    0000000000000000201207200000
XA14790WVWZZZ3BZXE328855  19995329016199819990514000000000BLÅ                 2017103120191031201206200000
AA03560VG55BR00000310774  20000056001199820000330020030821BLÅ                 0000000000000000200304150330
BP95730WAUZZZ8H14K028926  20045593071200320040811000000000SVART               2016092220181031201608150811
EK36900SJNFAAZE0U6060134  20176471002201620170627000000000HVIT                0000000020211031201706270627
AX66430WBACJ11040LA67729  19965026003199619961030000000000                    2016122220181031201509210000
RJ02350300976             19790116001197619790215019950306                    0000000000000000197902150000
BB01210YXAB0718XBF212936  20110038002200620110429000000000GRÅ                 0000000000000000201104290429
HB64170YS3EF59D253521792  20055400030200420050318000000000SVART               2017092520191031201402040318
TV74800JN1TENT30U0074884  20045604003200320070710100000000SVART               2016101120181031201506090414
DR21000WF0AXXWPMAGS32876  20166348006201620161223000000000GRÅ                 0000000020201031201612231223
SZ02100YYB6004B050111815  20050104004200020050407000000000GRÅ                 0000000000000000201311050407
UJ02950VTLSA224000006771  20043274002200320041206000000000RØD                 0000000000000000200412061206
PX0908050005065           19850161001198219850531019980420SVART               0000000000000000199601310000
SU56520YV1MC75518J052487  20085694007200720080118000000000HVIT                2016092020181031201304100118
NF79180TSMJYB22S00415556  20165596008201520160613000000000BLÅ                 0000000020201031201606130613
BD29210WV1ZZZ9KZ2R521999  20020119003200120020205000000000GRÅ                 2016102420181031200202050205
TS09060RK15PA0C36A001840  20073056001200420070221000000000RØD                 0000000000000000201604140221
NE045505007R42239         19910012012199019910225000000000RØD (FLERFARGET)    0000000000000000200804020000
PP83960JN1TENT30U0133650  20055358005200420090817100000000SØLV                2017122020191031201701210125
SV76090YV1LF68BCH1135711  20165314006201620161021000000000HVIT                0000000020201031201610211021
PP60080YV1RS746952456056  20055797017200420050928020120710GRÅ                 2015090920171031200705030928
XK19310WDD2452071J689607  20115186065201020110429000000000SVART               2017110120191031201104290429
KH83010U5YPC813DCL114654  20115408014201120120511100000000GRÅ                 2017113020191031201607211129
LS85310SJNFCAJ11U1431968  20165615011201520160204000000000SVART               0000000020201031201602040204
YA66170WBA3J310X0F813060  20145719092201320140107000000000GRÅ                 0000000020181031201703070107
EL96600SJNFAAZE0U6047839  20166832002201520160518000000000SVART               0000000020201031201605180518
KH48200VNKKL96340A171602  20075670018200520070412000000000SØLV                2018011020191031201309160412
KC09820SZB6792XXG2X00856  20170041001201520170410000000000SVART               0000000000000000201704100410
AF0744032707              19870037001198119870514000000000                    0000000000000000201504280000
PJ09550YYB6102EGC0187758  20120018027200720120725000000000GRÅ                 0000000000000000201207250725
DR31520WV1ZZZ7HZJH016934  20175260430201720170809000000000HVIT                0000000020211031201708090809
BR19420VF7JMHFXB97132241  20055429001200320050819000000000RØD                 2017112320191031200508190819
JF07810ZR5SK508916        19870861001198119870626019990429                    0000000000000000199701270000
NL04630YXAC0720X4F542736  20040010004200420040922000000000GRÅ                 0000000000000000200409300922
RL01790420464             19840180001198419841113019930604                    0000000000000000198809290000
EL68670WVWZZZAUZGW900292  20155765252201520150630000000000BLÅ                 0000000020191031201511250630
BT31860YV1DZ87C6G2811689  20155816005201520150917000000000BLÅ                 0000000020191031201604060917
VF68460WF0WXXGBBW1G70653  20015286003200120050503100000000GRÅ                 2017082420191031201402111108
AX76550VF1JA04B523119858  20005163015200020001117000000000GRØNN               2016092720181031201202131117
RJ12470SJNFEAP11U0587749  20025349009200020020301000000000BLÅ                 2017011920181031201702230301
SY05420VTTBA111100111407  20043058001200020040220020141117                    0000000000000000200402200220
DN30800TMBKS61Z3A2057155  20095603032200920091113000000000SØLV                2017100220191031201307021113